{
  "transactions": [
    {
      "hash": "0x51c5e6d6025f276dc55063e9edf59623810fb2ec84718b7ec954346ee694cb3a",
      "transactionType": "CALL",
      "contractName": null,
      "contractAddress": "0xe70aa6ba5780db1ccea17fac520e514b8f72cd06",
      "function": "grantRole(bytes32,address)",
      "arguments": [
        "0x59a1c48e5837ad7a7f3dcedcbe129bf3249ec4fbf651fd4f5e2600ead39fe2f5",
        "0x45630a7Db07604f82a1D2ccf8509eb375b1826C6"
      ],
      "transaction": {
        "from": "0x45630a7db07604f82a1d2ccf8509eb375b1826c6",
        "to": "0xe70aa6ba5780db1ccea17fac520e514b8f72cd06",
        "gas": "0x9c6d",
        "value": "0x0",
        "input": "0x2f2ff15d59a1c48e5837ad7a7f3dcedcbe129bf3249ec4fbf651fd4f5e2600ead39fe2f500000000000000000000000045630a7db07604f82a1d2ccf8509eb375b1826c6",
        "nonce": "0x63",
        "chainId": "0xaa36a7"
      },
      "additionalContracts": [],
      "isFixedGasLimit": false
    },
    {
      "hash": "0xcf866b35ba6b114fe11613be79cdee2284b166ed8647dbf9dc7750a2e8d230d2",
      "transactionType": "CALL",
      "contractName": null,
      "contractAddress": "0xe70aa6ba5780db1ccea17fac520e514b8f72cd06",
      "function": "grantRole(bytes32,address)",
      "arguments": [
        "0xf962acfbab8ce8b5063e7eb2e741d447f857c50333efedc97d59cbe8bac576e1",
        "0xce53dB1e09da735FC7289Ed5046F1b43a6eC3cD4"
      ],
      "transaction": {
        "from": "0x45630a7db07604f82a1d2ccf8509eb375b1826c6",
        "to": "0xe70aa6ba5780db1ccea17fac520e514b8f72cd06",
        "gas": "0x113e2",
        "value": "0x0",
        "input": "0x2f2ff15df962acfbab8ce8b5063e7eb2e741d447f857c50333efedc97d59cbe8bac576e1000000000000000000000000ce53db1e09da735fc7289ed5046f1b43a6ec3cd4",
        "nonce": "0x64",
        "chainId": "0xaa36a7"
      },
      "additionalContracts": [],
      "isFixedGasLimit": false
    }
  ],
  "receipts": [
    {
      "status": "0x1",
      "cumulativeGasUsed": "0x1599025",
      "logs": [],
      "logsBloom": "0x00000000000000000000000000000000000000000000000000000000000000000000000000000000000000000000000000000000000000000000000000000000000000000000000000000000000000000000000000000000000000000000000000000000000000000000000000000000000000000000000000000000000000000000000000000000000000000000000000000000000000000000000000000000000000000000000000000000000000000000000000000000000000000000000000000000000000000000000000000000000000000000000000000000000000000000000000000000000000000000000000000000000000000000000000000000",
      "type": "0x2",
      "transactionHash": "0x51c5e6d6025f276dc55063e9edf59623810fb2ec84718b7ec954346ee694cb3a",
      "transactionIndex": "0xbf",
      "blockHash": "0x18ca2b66f6f981db9c0272c1db8e39fa29f069afd8b7974675056581db3950f3",
      "blockNumber": "0x83f53c",
      "gasUsed": "0x7140",
      "effectiveGasPrice": "0xa24685",
      "from": "0x45630a7db07604f82a1d2ccf8509eb375b1826c6",
      "to": "0xe70aa6ba5780db1ccea17fac520e514b8f72cd06",
      "contractAddress": null
    },
    {
      "status": "0x1",
      "cumulativeGasUsed": "0x15a57e2",
      "logs": [
        {
          "address": "0xe70aa6ba5780db1ccea17fac520e514b8f72cd06",
          "topics": [
            "0x2f8788117e7eff1d82e926ec794901d17c78024a50270940304540a733656f0d",
            "0xf962acfbab8ce8b5063e7eb2e741d447f857c50333efedc97d59cbe8bac576e1",
            "0x000000000000000000000000ce53db1e09da735fc7289ed5046f1b43a6ec3cd4",
            "0x00000000000000000000000045630a7db07604f82a1d2ccf8509eb375b1826c6"
          ],
          "data": "0x",
          "blockHash": "0x18ca2b66f6f981db9c0272c1db8e39fa29f069afd8b7974675056581db3950f3",
          "blockNumber": "0x83f53c",
          "blockTimestamp": "0x685ffcc8",
          "transactionHash": "0xcf866b35ba6b114fe11613be79cdee2284b166ed8647dbf9dc7750a2e8d230d2",
          "transactionIndex": "0xc0",
          "logIndex": "0x191",
          "removed": false
        }
      ],
      "logsBloom": "0x00000004000000000000000000010000000000000000000000000000000000000000000000000000000000000000000000000000000000000000002000000000000000000002000000000001000000000000000000000000000000800000000000000000000000000000000000000000000000080000000000000000000000000000000000000000000000000000000000000000000000000000000000000000000000000000020000010000000000000000000020000000001004000000000000000000000000000000000000000000002000000000000100000000000000000000000000000000000000000000000000000000000000000000000000000400",
      "type": "0x2",
      "transactionHash": "0xcf866b35ba6b114fe11613be79cdee2284b166ed8647dbf9dc7750a2e8d230d2",
      "transactionIndex": "0xc0",
      "blockHash": "0x18ca2b66f6f981db9c0272c1db8e39fa29f069afd8b7974675056581db3950f3",
      "blockNumber": "0x83f53c",
      "gasUsed": "0xc7bd",
      "effectiveGasPrice": "0xa24685",
      "from": "0x45630a7db07604f82a1d2ccf8509eb375b1826c6",
      "to": "0xe70aa6ba5780db1ccea17fac520e514b8f72cd06",
      "contractAddress": null
    }
  ],
  "libraries": [],
  "pending": [],
  "returns": {},
  "timestamp": 1751121097,
  "chain": 11155111,
  "commit": "af6d067"
}