{
  "transactions": [
    {
      "hash": "0x9a1cd5b48a2de8837f9ff23f5dc3cd437998c3bd675be739fb137acc1bb53e35",
      "transactionType": "CALL",
      "contractName": null,
      "contractAddress": "0xe70aa6ba5780db1ccea17fac520e514b8f72cd06",
      "function": "grantRole(bytes32,address)",
      "arguments": [
        "0x59a1c48e5837ad7a7f3dcedcbe129bf3249ec4fbf651fd4f5e2600ead39fe2f5",
        "0x45630a7Db07604f82a1D2ccf8509eb375b1826C6"
      ],
      "transaction": {
        "from": "0x45630a7db07604f82a1d2ccf8509eb375b1826c6",
        "to": "0xe70aa6ba5780db1ccea17fac520e514b8f72cd06",
        "gas": "0x1240c",
        "value": "0x0",
        "input": "0x2f2ff15d59a1c48e5837ad7a7f3dcedcbe129bf3249ec4fbf651fd4f5e2600ead39fe2f500000000000000000000000045630a7db07604f82a1d2ccf8509eb375b1826c6",
        "nonce": "0x5d",
        "chainId": "0xaa36a7"
      },
      "additionalContracts": [],
      "isFixedGasLimit": false
    },
    {
      "hash": "0x2c35275d3523577ffdd27921ebfdcce1ca3f68a2b250ad75719806c3c8282c90",
      "transactionType": "CALL",
      "contractName": null,
      "contractAddress": "0xe70aa6ba5780db1ccea17fac520e514b8f72cd06",
      "function": "grantRole(bytes32,address)",
      "arguments": [
        "0xf962acfbab8ce8b5063e7eb2e741d447f857c50333efedc97d59cbe8bac576e1",
        "0x45630a7Db07604f82a1D2ccf8509eb375b1826C6"
      ],
      "transaction": {
        "from": "0x45630a7db07604f82a1d2ccf8509eb375b1826c6",
        "to": "0xe70aa6ba5780db1ccea17fac520e514b8f72cd06",
        "gas": "0x113e2",
        "value": "0x0",
        "input": "0x2f2ff15df962acfbab8ce8b5063e7eb2e741d447f857c50333efedc97d59cbe8bac576e100000000000000000000000045630a7db07604f82a1d2ccf8509eb375b1826c6",
        "nonce": "0x5e",
        "chainId": "0xaa36a7"
      },
      "additionalContracts": [],
      "isFixedGasLimit": false
    }
  ],
  "receipts": [
    {
      "status": "0x1",
      "cumulativeGasUsed": "0x13d11ab",
      "logs": [
        {
          "address": "0xe70aa6ba5780db1ccea17fac520e514b8f72cd06",
          "topics": [
            "0x2f8788117e7eff1d82e926ec794901d17c78024a50270940304540a733656f0d",
            "0x59a1c48e5837ad7a7f3dcedcbe129bf3249ec4fbf651fd4f5e2600ead39fe2f5",
            "0x00000000000000000000000045630a7db07604f82a1d2ccf8509eb375b1826c6",
            "0x00000000000000000000000045630a7db07604f82a1d2ccf8509eb375b1826c6"
          ],
          "data": "0x",
          "blockHash": "0x5d6a26f78c4d7fc455fda139bf87b8e521d6bda3b97359382fe291ca8d72b41d",
          "blockNumber": "0x83eff8",
          "blockTimestamp": "0x685fbd8c",
          "transactionHash": "0x9a1cd5b48a2de8837f9ff23f5dc3cd437998c3bd675be739fb137acc1bb53e35",
          "transactionIndex": "0xc3",
          "logIndex": "0x1e8",
          "removed": false
        }
      ],
      "logsBloom": "0x00000004000000000000000000000000000000000000000000000000000000000000000000000000000000000000000000000000000000000000002000000000000000000002000000000000000000000000000000000000000000000000000000000000001000000000000000000000000000080000000000000000000000000000000000000000000000000000000000000000000000000000000000000000000000000000020000000000000010000000000020000000001000000000000000000000000000000000000000000000002040000000000100000000000000000000000000000000000000000000000000000000000000000000000000000000",
      "type": "0x2",
      "transactionHash": "0x9a1cd5b48a2de8837f9ff23f5dc3cd437998c3bd675be739fb137acc1bb53e35",
      "transactionIndex": "0xc3",
      "blockHash": "0x5d6a26f78c4d7fc455fda139bf87b8e521d6bda3b97359382fe291ca8d72b41d",
      "blockNumber": "0x83eff8",
      "gasUsed": "0xc7b1",
      "effectiveGasPrice": "0x178793",
      "from": "0x45630a7db07604f82a1d2ccf8509eb375b1826c6",
      "to": "0xe70aa6ba5780db1ccea17fac520e514b8f72cd06",
      "contractAddress": null
    },
    {
      "status": "0x1",
      "cumulativeGasUsed": "0x13dd968",
      "logs": [
        {
          "address": "0xe70aa6ba5780db1ccea17fac520e514b8f72cd06",
          "topics": [
            "0x2f8788117e7eff1d82e926ec794901d17c78024a50270940304540a733656f0d",
            "0xf962acfbab8ce8b5063e7eb2e741d447f857c50333efedc97d59cbe8bac576e1",
            "0x00000000000000000000000045630a7db07604f82a1d2ccf8509eb375b1826c6",
            "0x00000000000000000000000045630a7db07604f82a1d2ccf8509eb375b1826c6"
          ],
          "data": "0x",
          "blockHash": "0x5d6a26f78c4d7fc455fda139bf87b8e521d6bda3b97359382fe291ca8d72b41d",
          "blockNumber": "0x83eff8",
          "blockTimestamp": "0x685fbd8c",
          "transactionHash": "0x2c35275d3523577ffdd27921ebfdcce1ca3f68a2b250ad75719806c3c8282c90",
          "transactionIndex": "0xc4",
          "logIndex": "0x1e9",
          "removed": false
        }
      ],
      "logsBloom": "0x00000004000000000000000000000000000000000000000000000000000000000000000000000000000000000000000000000000000000000000002000000000000000000002000000000001000000000000000000000000000000000000000000000000000000000000000000000000000000080000000000000000000000000000000000000000000000000000000000000000000000000000000000000000000000000000020000000000000000000000000020000000001004000000000000000000000000000000000000000000002000000000000100000000000000000000000000000000000000000000000000000000000000000000000000000400",
      "type": "0x2",
      "transactionHash": "0x2c35275d3523577ffdd27921ebfdcce1ca3f68a2b250ad75719806c3c8282c90",
      "transactionIndex": "0xc4",
      "blockHash": "0x5d6a26f78c4d7fc455fda139bf87b8e521d6bda3b97359382fe291ca8d72b41d",
      "blockNumber": "0x83eff8",
      "gasUsed": "0xc7bd",
      "effectiveGasPrice": "0x178793",
      "from": "0x45630a7db07604f82a1d2ccf8509eb375b1826c6",
      "to": "0xe70aa6ba5780db1ccea17fac520e514b8f72cd06",
      "contractAddress": null
    }
  ],
  "libraries": [],
  "pending": [],
  "returns": {},
  "timestamp": 1751104910,
  "chain": 11155111,
  "commit": "af6d067"
}