{
  "transactions": [
    {
      "hash": "0xe01549c0988193ad1ceb48d882185dc992790eb6aa5ba42161828ae8a3a0c82b",
      "transactionType": "CALL",
      "contractName": null,
      "contractAddress": "0x1a1352d67463b0f4e660ce1f4efa5ec6a8f17a10",
      "function": "setStablecoinStatus(address,bool)",
      "arguments": [
        "0x1C7D4b196Cb0c7b01d064914d4010f4F4a9465bD",
        "true"
      ],
      "transaction": {
        "from": "0x45630a7db07604f82a1d2ccf8509eb375b1826c6",
        "to": "0x1a1352d67463b0f4e660ce1f4efa5ec6a8f17a10",
        "gas": "0x1159d",
        "value": "0x0",
        "input": "0x72a4acb80000000000000000000000001c7d4b196cb0c7b01d064914d4010f4f4a9465bd0000000000000000000000000000000000000000000000000000000000000001",
        "nonce": "0x61",
        "chainId": "0xaa36a7"
      },
      "additionalContracts": [],
      "isFixedGasLimit": false
    }
  ],
  "receipts": [
    {
      "status": "0x1",
      "cumulativeGasUsed": "0x88b650",
      "logs": [
        {
          "address": "0x1a1352d67463b0f4e660ce1f4efa5ec6a8f17a10",
          "topics": [
            "0xc44364c06d9960f7765d517c7fa1070b61eef5c1f3b3e889099810dc489016f8",
            "0x0000000000000000000000001c7d4b196cb0c7b01d064914d4010f4f4a9465bd"
          ],
          "data": "0x0000000000000000000000000000000000000000000000000000000000000001",
          "blockHash": "0xc7e3a20f4c9175ce3093d36fd05b805113343ad8013b2557465c3c0eb0f14003",
          "blockNumber": "0x83f07d",
          "blockTimestamp": "0x685fc3c8",
          "transactionHash": "0xe01549c0988193ad1ceb48d882185dc992790eb6aa5ba42161828ae8a3a0c82b",
          "transactionIndex": "0x94",
          "logIndex": "0xa4",
          "removed": false
        }
      ],
      "logsBloom": "0x00000000000000000000000000000000000000000000000000000000000000000000000000000000000020000000040000000000000002000000000000000000000000000000000000000000000000000000000000000000000000008000000000000000000000000000000000000000000000000000002000000000000000000000000000000000000000000000000000002000000000000000000000000000000000000000000000004000000000200000000000000000000000000000000000200000000000000000000000000000000000000000000000000000000000000000000000000000000000000000000000000000000000000000000000000000",
      "type": "0x2",
      "transactionHash": "0xe01549c0988193ad1ceb48d882185dc992790eb6aa5ba42161828ae8a3a0c82b",
      "transactionIndex": "0x94",
      "blockHash": "0xc7e3a20f4c9175ce3093d36fd05b805113343ad8013b2557465c3c0eb0f14003",
      "blockNumber": "0x83f07d",
      "gasUsed": "0xbdd3",
      "effectiveGasPrice": "0x184dc4",
      "from": "0x45630a7db07604f82a1d2ccf8509eb375b1826c6",
      "to": "0x1a1352d67463b0f4e660ce1f4efa5ec6a8f17a10",
      "contractAddress": null
    }
  ],
  "libraries": [],
  "pending": [],
  "returns": {},
  "timestamp": 1751106507,
  "chain": 11155111,
  "commit": "af6d067"
}