{
  "transactions": [
    {
      "hash": "0x8411b8bed4e77eb071db5cc82beff5b7cd1703aab6d5fac2129573e327b8f075",
      "transactionType": "CALL",
      "contractName": null,
      "contractAddress": "0xaaea02a014465e2ed733c73b407efc7cb7faceba",
      "function": "submitKYC(string,string,string,string)",
      "arguments": [
        "Realtor Name",
        "realtor@example.com",
        "123456789",
        "1234567890"
      ],
      "transaction": {
        "from": "0xce53db1e09da735fc7289ed5046f1b43a6ec3cd4",
        "to": "0xaaea02a014465e2ed733c73b407efc7cb7faceba",
        "gas": "0x39edf",
        "value": "0x0",
        "input": "0xe3d784f6000000000000000000000000000000000000000000000000000000000000008000000000000000000000000000000000000000000000000000000000000000c000000000000000000000000000000000000000000000000000000000000001000000000000000000000000000000000000000000000000000000000000000140000000000000000000000000000000000000000000000000000000000000000c5265616c746f72204e616d65000000000000000000000000000000000000000000000000000000000000000000000000000000000000000000000000000000137265616c746f72406578616d706c652e636f6d0000000000000000000000000000000000000000000000000000000000000000000000000000000000000000093132333435363738390000000000000000000000000000000000000000000000000000000000000000000000000000000000000000000000000000000000000a3132333435363738393000000000000000000000000000000000000000000000",
        "nonce": "0x0",
        "chainId": "0xaa36a7"
      },
      "additionalContracts": [],
      "isFixedGasLimit": false
    }
  ],
  "receipts": [
    {
      "status": "0x1",
      "cumulativeGasUsed": "0xf95978",
      "logs": [
        {
          "address": "0xaaea02a014465e2ed733c73b407efc7cb7faceba",
          "topics": [
            "0x2c3dea8db96f9d4588bb336e6b5c792bfaa97ca6516c306e7944756187942522",
            "0x000000000000000000000000ce53db1e09da735fc7289ed5046f1b43a6ec3cd4"
          ],
          "data": "0x00000000000000000000000000000000000000000000000000000000685ffff8",
          "blockHash": "0xe4845bee2e0b5012517e1c13300045bf82624fc2c75fce1332f46c95381c2f10",
          "blockNumber": "0x83f580",
          "blockTimestamp": "0x685ffff8",
          "transactionHash": "0x8411b8bed4e77eb071db5cc82beff5b7cd1703aab6d5fac2129573e327b8f075",
          "transactionIndex": "0xbf",
          "logIndex": "0x135",
          "removed": false
        }
      ],
      "logsBloom": "0x00000000000000000000000000810000000000000000000000000000000000000000000000000000000000000000000000000000000000000000000000000000000000000000000000000000000000000000000000000000000000800000000000000000000000000000000000000000000000000000000000000000000000000000000000000000000000000008000000000000000000000000000000000000000000000000000000010100000000080000000000000000000000000000000000000000000000000000000000000000000000000000000100000000000000000000000000000000000000000000000000000000000000010000000000000000",
      "type": "0x2",
      "transactionHash": "0x8411b8bed4e77eb071db5cc82beff5b7cd1703aab6d5fac2129573e327b8f075",
      "transactionIndex": "0xbf",
      "blockHash": "0xe4845bee2e0b5012517e1c13300045bf82624fc2c75fce1332f46c95381c2f10",
      "blockNumber": "0x83f580",
      "gasUsed": "0x279c3",
      "effectiveGasPrice": "0xb0a6a7",
      "from": "0xce53db1e09da735fc7289ed5046f1b43a6ec3cd4",
      "to": "0xaaea02a014465e2ed733c73b407efc7cb7faceba",
      "contractAddress": null
    }
  ],
  "libraries": [],
  "pending": [],
  "returns": {},
  "timestamp": 1751121912,
  "chain": 11155111,
  "commit": "af6d067"
}