{
  "transactions": [
    {
      "hash": "0x709a424ad8d818a77e25d50b742c4d362e38320b38eefefbf17d5366a2438f9c",
      "transactionType": "CALL",
      "contractName": null,
      "contractAddress": "0xaaea02a014465e2ed733c73b407efc7cb7faceba",
      "function": "submitKYC(string,string,string,string)",
      "arguments": [
        "olujimi",
        "olujimi@example.com",
        "12345667849",
        "12332167890"
      ],
      "transaction": {
        "from": "0x45630a7db07604f82a1d2ccf8509eb375b1826c6",
        "to": "0xaaea02a014465e2ed733c73b407efc7cb7faceba",
        "gas": "0x39ebc",
        "value": "0x0",
        "input": "0xe3d784f6000000000000000000000000000000000000000000000000000000000000008000000000000000000000000000000000000000000000000000000000000000c00000000000000000000000000000000000000000000000000000000000000100000000000000000000000000000000000000000000000000000000000000014000000000000000000000000000000000000000000000000000000000000000076f6c756a696d690000000000000000000000000000000000000000000000000000000000000000000000000000000000000000000000000000000000000000136f6c756a696d69406578616d706c652e636f6d00000000000000000000000000000000000000000000000000000000000000000000000000000000000000000b3132333435363637383439000000000000000000000000000000000000000000000000000000000000000000000000000000000000000000000000000000000b3132333332313637383930000000000000000000000000000000000000000000",
        "nonce": "0x65",
        "chainId": "0xaa36a7"
      },
      "additionalContracts": [],
      "isFixedGasLimit": false
    }
  ],
  "receipts": [
    {
      "status": "0x1",
      "cumulativeGasUsed": "0xf4a5f7",
      "logs": [
        {
          "address": "0xaaea02a014465e2ed733c73b407efc7cb7faceba",
          "topics": [
            "0x2c3dea8db96f9d4588bb336e6b5c792bfaa97ca6516c306e7944756187942522",
            "0x00000000000000000000000045630a7db07604f82a1d2ccf8509eb375b1826c6"
          ],
          "data": "0x0000000000000000000000000000000000000000000000000000000068603928",
          "blockHash": "0x5fc58c066a41a657a29e994d5f322314406ecfae205caab240d75a59bec34e57",
          "blockNumber": "0x83fa44",
          "blockTimestamp": "0x68603928",
          "transactionHash": "0x709a424ad8d818a77e25d50b742c4d362e38320b38eefefbf17d5366a2438f9c",
          "transactionIndex": "0x96",
          "logIndex": "0xe8",
          "removed": false
        }
      ],
      "logsBloom": "0x00000000000000000000000000800000000000000000000000000000000000000000000000000000000000000000000000000000000000000000000000000000000000000002000000000000000000000000000000000000000000000000000000000000000000000000000000000000000000080000000000000000000000000000000000000000000000000008000000000000000000000000000000000000000000000000000000000100000000080000000020000000000000000000000000000000000000000000000000000000000000000000000100000000000000000000000000000000000000000000000000000000000000010000000000000000",
      "type": "0x2",
      "transactionHash": "0x709a424ad8d818a77e25d50b742c4d362e38320b38eefefbf17d5366a2438f9c",
      "transactionIndex": "0x96",
      "blockHash": "0x5fc58c066a41a657a29e994d5f322314406ecfae205caab240d75a59bec34e57",
      "blockNumber": "0x83fa44",
      "gasUsed": "0x279ab",
      "effectiveGasPrice": "0xaa4283",
      "from": "0x45630a7db07604f82a1d2ccf8509eb375b1826c6",
      "to": "0xaaea02a014465e2ed733c73b407efc7cb7faceba",
      "contractAddress": null
    }
  ],
  "libraries": [],
  "pending": [],
  "returns": {},
  "timestamp": 1751136554,
  "chain": 11155111,
  "commit": "af6d067"
}