{
  "transactions": [
    {
      "hash": null,
      "transactionType": "CALL",
      "contractName": null,
      "contractAddress": "0xaaea02a014465e2ed733c73b407efc7cb7faceba",
      "function": "submitKYC(string,string,string,string)",
      "arguments": [
        "Realtor Name",
        "realtor@example.com",
        "123456789",
        "1234567890"
      ],
      "transaction": {
        "from": "0xce53db1e09da735fc7289ed5046f1b43a6ec3cd4",
        "to": "0xaaea02a014465e2ed733c73b407efc7cb7faceba",
        "gas": "0x39edf",
        "value": "0x0",
        "input": "0xe3d784f6000000000000000000000000000000000000000000000000000000000000008000000000000000000000000000000000000000000000000000000000000000c000000000000000000000000000000000000000000000000000000000000001000000000000000000000000000000000000000000000000000000000000000140000000000000000000000000000000000000000000000000000000000000000c5265616c746f72204e616d65000000000000000000000000000000000000000000000000000000000000000000000000000000000000000000000000000000137265616c746f72406578616d706c652e636f6d0000000000000000000000000000000000000000000000000000000000000000000000000000000000000000093132333435363738390000000000000000000000000000000000000000000000000000000000000000000000000000000000000000000000000000000000000a3132333435363738393000000000000000000000000000000000000000000000",
        "nonce": "0x0",
        "chainId": "0xaa36a7"
      },
      "additionalContracts": [],
      "isFixedGasLimit": false
    }
  ],
  "receipts": [],
  "libraries": [],
  "pending": [],
  "returns": {},
  "timestamp": 1751121271,
  "chain": 11155111,
  "commit": "af6d067"
}