{
  "transactions": [
    {
      "hash": null,
      "transactionType": "CALL",
      "contractName": null,
      "contractAddress": "0xaaea02a014465e2ed733c73b407efc7cb7faceba",
      "function": "submitKYC(string,string,string,string)",
      "arguments": [
        "olujimi",
        "olujimi@example.com",
        "12345667849",
        "12332167890"
      ],
      "transaction": {
        "from": "0xf39fd6e51aad88f6f4ce6ab8827279cfffb92266",
        "to": "0xaaea02a014465e2ed733c73b407efc7cb7faceba",
        "gas": "0x39ebc",
        "value": "0x0",
        "input": "0xe3d784f6000000000000000000000000000000000000000000000000000000000000008000000000000000000000000000000000000000000000000000000000000000c00000000000000000000000000000000000000000000000000000000000000100000000000000000000000000000000000000000000000000000000000000014000000000000000000000000000000000000000000000000000000000000000076f6c756a696d690000000000000000000000000000000000000000000000000000000000000000000000000000000000000000000000000000000000000000136f6c756a696d69406578616d706c652e636f6d00000000000000000000000000000000000000000000000000000000000000000000000000000000000000000b3132333435363637383439000000000000000000000000000000000000000000000000000000000000000000000000000000000000000000000000000000000b3132333332313637383930000000000000000000000000000000000000000000",
        "nonce": "0x43eb",
        "chainId": "0xaa36a7"
      },
      "additionalContracts": [],
      "isFixedGasLimit": false
    }
  ],
  "receipts": [],
  "libraries": [],
  "pending": [],
  "returns": {},
  "timestamp": 1751138935,
  "chain": 11155111,
  "commit": "af6d067"
}