{
  "transactions": [
    {
      "hash": "0x06983b714c107f9cf2847c39029f62cad49b5a5f862d25c1c98f6ba6186cef5d",
      "transactionType": "CALL",
      "contractName": null,
      "contractAddress": "0x1a1352d67463b0f4e660ce1f4efa5ec6a8f17a10",
      "function": "updateVaultManager(address,bool)",
      "arguments": [
        "0xEee22c37de3187Bbf06B1cb128A223E66cfB5196",
        "true"
      ],
      "transaction": {
        "from": "0x45630a7db07604f82a1d2ccf8509eb375b1826c6",
        "to": "0x1a1352d67463b0f4e660ce1f4efa5ec6a8f17a10",
        "gas": "0x10680",
        "value": "0x0",
        "input": "0xce249d49000000000000000000000000eee22c37de3187bbf06b1cb128a223e66cfb51960000000000000000000000000000000000000000000000000000000000000001",
        "nonce": "0x62",
        "chainId": "0xaa36a7"
      },
      "additionalContracts": [],
      "isFixedGasLimit": false
    }
  ],
  "receipts": [
    {
      "status": "0x1",
      "cumulativeGasUsed": "0x1630b36",
      "logs": [
        {
          "address": "0x1a1352d67463b0f4e660ce1f4efa5ec6a8f17a10",
          "topics": [
            "0xafab6005c6224aa4cf73b61494fb9694d49df41570731b228fc02f5bc2e9842c",
            "0x000000000000000000000000eee22c37de3187bbf06b1cb128a223e66cfb5196"
          ],
          "data": "0x0000000000000000000000000000000000000000000000000000000000000001",
          "blockHash": "0x0aaa331d957bca158a9f78d701ac15bdee229f8a19fd2bbbaa07bb3da4127a06",
          "blockNumber": "0x83f0ee",
          "blockTimestamp": "0x685fc914",
          "transactionHash": "0x06983b714c107f9cf2847c39029f62cad49b5a5f862d25c1c98f6ba6186cef5d",
          "transactionIndex": "0x10b",
          "logIndex": "0x11f",
          "removed": false
        }
      ],
      "logsBloom": "0x00000000000000000000000000000000000000000080000000000000000000000000000000000000000020000000000000000000000000000000000000000000000000000000000000000000000000000000000000000000000000000000000000000000000000000000000000000000000000000000000000000000040000000000000000000000000000000080000800002200000000000000000000000000000000000000000000004000000000000000000000000000000000000000000000000000000000000000000000000000000000000000000000000000000000000000000000000000000000000000000000000000000000000000000800000000",
      "type": "0x2",
      "transactionHash": "0x06983b714c107f9cf2847c39029f62cad49b5a5f862d25c1c98f6ba6186cef5d",
      "transactionIndex": "0x10b",
      "blockHash": "0x0aaa331d957bca158a9f78d701ac15bdee229f8a19fd2bbbaa07bb3da4127a06",
      "blockNumber": "0x83f0ee",
      "gasUsed": "0xbe0d",
      "effectiveGasPrice": "0x1bdcd7",
      "from": "0x45630a7db07604f82a1d2ccf8509eb375b1826c6",
      "to": "0x1a1352d67463b0f4e660ce1f4efa5ec6a8f17a10",
      "contractAddress": null
    }
  ],
  "libraries": [],
  "pending": [],
  "returns": {},
  "timestamp": 1751107862,
  "chain": 11155111,
  "commit": "af6d067"
}